:020000040800F2
:10000000085300205D0200083F1E0008191D00086B
:100010003D1E00088D0300087D360008000000002A
:100020000000000000000000000000009D0100082A
:10003000ED06000800000000F9010008D52F0008B7
:1000400077020008770200087702000877020008AC
:10005000770200087702000877020008770200089C
:10006000770200087702000877020008770200088C
:10007000770200087702000877020008770200087C
:10008000770200087702000877020008770200086C
:10009000910300089D03000877020008770200081A
:1000A0007702000895300008770200087702000800
:1000B000770200087702000877020008770200083C
:1000C000770200087702000877020008770200082C
:1000D000770200087702000877020008770200081C
:1000E000770200087702000877020008770200080C
:1000F00077020008770200087702000877020008FC
:1001000077020008770200087702000877020008EB
:1001100077020008770200087702000877020008DB
:1001200077020008770200087702000877020008CB
:1001300077020008770200087702000877020008BB
:1001400077020008770200087702000877020008AB
:10015000770200087702000877020008770200089B
:10016000770200087702000877020008770200088B
:1001700077020008770200087702000800000000FC
:100180007702000877020008DFF80CD000F0ECF8E6
:10019000004800475D3B0008085300202C4B1968BD
:1001A0000868B0E8F04F80F30988BFF36F8F4FF015
:1001B000000080F3118870470000000008480068C4
:1001C000006880F308884FF0000080F3148862B65E
:1001D00061B6BFF34F8FBFF36F8F00DF00BF00BF6B
:1001E00008ED00E0DFF80C00016841F470010160E7
:1001F000704700BF88ED00E0EFF30980BFF36F8F19
:10020000134B1A681EF0100F08BF20ED108A20E96A
:10021000F04F106009B44FF0500080F31188BFF325
:100220004F8FBFF36F8F04F06BFB4FF0000080F334
:10023000118809BC19680868B0E8F04F1EF0100F6B
:1002400008BFB0EC108A80F30988BFF36F8F704746
:1002500014000020EFF30580704700000648804737
:1002600006480047FEE7FEE7FEE7FEE7FEE7FEE79B
:10027000FEE7FEE7FEE7FEE785300008890100089B
:100280002DE9F05F0546002092469B4688460646CB
:10029000814640241BE0284641464746224600F05E
:1002A00053F853465A46C01A914110D31146184686
:1002B000224600F03AF82D1A67EB01084F46224615
:1002C0000120002100F031F817EB00094E41201EFB
:1002D000A4F10104DFDC484631462A464346BDE826
:1002E000F09F40EA01039B0703D009E008C9121FF1
:1002F00008C0042AFAD203E011F8013B00F8013BE0
:10030000521EF9D27047D2B201E000F8012B491E0B
:10031000FBD270470022F6E710B513460A460446A2
:100320001946FFF7F0FF204610BD202A04DB203AD3
:1003300000FA02F1002070479140C2F1200320FA38
:1003400003F3194390407047202A04DB203A21FA36
:1003500002F00021704721FA02F3D040C2F12002DE
:100360009140084319467047064C074D06E0E06887
:1003700040F0010394E8070098471034AC42F6D3EC
:10038000FFF706FF3056000850560008FEE7000051
:10039000014800F06CBB000098000020014800F00C
:1003A00066BB00009800002000B58BB0282168468D
:1003B000FFF7B0FF00200121CDE906010590009074
:1003C00001900290039004900E20CDE9081004A043
:1003D00003F056F969460F4800F00CFA0BB000BD67
:1003E0005B43414E2046494C5445525D206D6F643D
:1003F000653D3332424954206D61736B3D30783036
:10040000303030202861636365707420616C6C2922
:100410000D0A00009800002010B58CB0002439E0CF
:10042000002002900146039002AB04AA224800F08B
:100430007CFA38B1204800F064FA01461FA003F0AE
:100440001FF92EE0069828B125A0089A059903F017
:1004500017F917E00022089913461046042905D31E
:10046000DDF809109DF8082021F07F43089907293D
:1004700002D3039820F07F40CDE9000122A0049927
:1004800003F0FEF802A8089900F070F82DA003F020
:10049000F7F8641C0021084800F036FA08B1102C67
:1004A000BED3002C06D00CB02146BDE8104026A0DB
:1004B00003F0E6B80CB010BD980000205B43414E3D
:1004C0002052585D2072656164206661696C6564C4
:1004D0002C206572723D30782530386C580D0A003A
:1004E0005B43414E2052585D206578745F69643DDE
:1004F00030782530386C5820646C633D256C75204D
:10050000646174613D0000005B43414E2052585DC0
:100510002069643D30782530336C58206E6F6465F7
:100520003D2575207365713D256C75207469636B7D
:100530003D256C7520646C633D256C752064617489
:10054000613D00000D0A00005B43414E2052585DA2
:100550002070726F63657373656420256C75206607
:1005600072616D652873290D0A00000070B50D4693
:100570000646082902D90825002401E000240AE0E3
:10058000315D06A003F07CF8601CA84202D205A0F1
:1005900003F076F8641CAC42F2D370BD25303258BB
:1005A00000000000200000007CB504460DA003F010
:1005B00067F800F0ABFD064600F0AEFD054600F022
:1005C000B1FD014604F58070CDE9004033462A466E
:1005D0000BA003F055F8BDE87C404FF47A7116A0EB
:1005E00003F04EB80D0A5B424F4F545D2063616EBD
:1005F000746573742043414E2064656D6F0D0A006D
:100600005B424F4F545D205549443D2530386C586E
:100610002D2530386C582D2530386C58206E6F647D
:10062000653D25752074785F69643D3078253033E9
:100630006C580D0A000000005B424F4F545D20557E
:1006400053415254313D3131353230302020434115
:100650004E313D314D627073202054585F504552E9
:10066000494F443D256C756D730D0A0030B58BB054
:100670000C460546182103A8FFF74CFE00F040FD8C
:100680008DF804508DF80540210A8DF80610210CD4
:100690008DF807108DF80800010A8DF80910000C7C
:1006A0008DF80A00A5208DF80B00002005F5807557
:1006B000CDE9035008210590CDE906018DF8200011
:1006C000094800F0BEF930B90721074800F011F8D9
:1006D000012003F056FA09AB01AA03A9024800F071
:1006E0002BF80BB030BD000098000020704772B6A8
:1006F000FEE790F82020012A07D0022A05D0416A9F
:1007000041F48021416201207047CA0704D0026889
:10071000936843F0800393608A0704D50268936866
:1007200043F400439360490704D50068816841F4AD
:100730000001816000207047F0B590F820500468F7
:10074000A468012D05D0022D03D0416A41F4802117
:100750004DE014F0406F01D1E50045D5C4F30164CC
:100760000125A5401D608D684FF4C0739DB1CE6812
:1007700035434E6845EAC605066803EB0417F55194
:100780004FF4C275076805EB04150E697E51097DAB
:10079000012905D009E00E88CD6845EA4655EBE70A
:1007A00001684E5946F480764E511179D2F80550C1
:1007B0004FF4C67641EA0521056806EB0416A951F7
:1007C0001178D2F801204FF4C47541EA0221026881
:1007D00005EB04155151006803EB0411425842F037
:1007E000010242500020F0BD416A41F40011416213
:1007F0000120F0BD10B590F82020012A07D0022A70
:1008000005D0416A41F480214162012010BD3B487E
:10081000D0F8002242F00102C0F80022D0F80022F5
:1008200022F47C52C0F80022D0F800224B6A42EA3F
:100830000322C0F800220A7D02F01F0301229A4021
:10084000D0F81C329343C0F81C32CB69B3B9D0F84E
:100850000C329343C0F80C328C894B6864F31F430D
:100860004C6900EBC404C4F840320C890B6864F393
:100870001F434C6900EBC404C4F84432CB69012B1C
:1008800016D1D0F80C321343C0F80C320C884B68E8
:1008900064F31F434C6900EBC404C4F840320C8974
:1008A000CB6864F31F434C6900EBC404C4F84432C2
:1008B0008B69002BD0F804320ED01343C0F80432F9
:1008C0000B69002BD0F8143208D01343C0F814324F
:1008D000096A012904D008E09343EFE79343F5E761
:1008E000D0F81C121143C0F81C12D0F8001221F0ED
:1008F0000101C0F80012002010BD0000006400409B
:100900007047406A704700000246002092F820308D
:10091000012B01D0022B05D1106821B1D0F81000B5
:1009200000F003007047C068FAE770B590F8204007
:10093000012C05D0022C03D0416A41F4802128E02B
:10094000046809B32469A40720D04FF4D87405685B
:1009500004EB01142D5915F00405956005682D5917
:100960001AD0ED08556005682C5904F00204D460D3
:100970004FF4DA74056804EB01142E5906F00F06E3
:10098000082E0CD308250DE0E468DCE7416A41F449
:1009900000114162012070BD6D0D1560E3E72D5916
:1009A00005F00F05156105682D59C5F307259561FB
:1009B00005682C59240C54614FF4DC72046802EB76
:1009C0000112A4581C700468A458240A5C700468BE
:1009D000A458240C9C700468A258120EDA704FF4CC
:1009E000DE72046802EB0112A4581C710468A4585A
:1009F000240A5C710468A458240C9C710468A258F1
:100A0000120EDA71006829B1016941F0200101611B
:100A1000002070BDC16841F02001C160F8E70146C7
:100A200090F82000012801D0022804D109684A6802
:100A3000920701D50420704709688907FBD5032078
:100A400070470246002092F82010012901D00229A7
:100A50000CD111688A68520100D501208A68120100
:100A600000D5401C8968C90000D5401C70472DE99D
:100A7000F05F0546006800244669D0F80490876856
:100A8000D0F80CB0D0F810A0D0F81880F10748D0FA
:100A9000F90714D001218160B80703D5284600F07A
:100AA00018FA0CE0780702D54FF4006407E0380725
:100AB00002D54FF4805402E0284600F009FAF80508
:100AC00016D529684FF480708860B80503D528468C
:100AD00000F001FA0CE0780502D544F4005407E078
:100AE000380502D544F4804402E0284600F0F2F9CB
:100AF000F80316D529684FF480308860B80303D511
:100B0000284600F0EAF90CE0780302D544F40044EA
:100B100007E0380302D544F4803402E0284600F0B0
:100B2000DBF9300707D55FEACB6004D529681020D0
:100B300044F40074C86070074FF0080707D55FEAF7
:100B40000B7004D52868C760284600F05FF9B0072D
:100B500006D52868C068800702D0284600F057F9FB
:100B6000700607D55FEACA6004D52968102044F4EE
:100B700080640861B00607D55FEA0A7004D528686A
:100B80000761284600F044F9F00606D52868006998
:100B9000800702D0284600F03CF9B00308D55FEA90
:100BA000C96005D5296810204860284600F032F950
:100BB000F00307D55FEA097004D528684760284626
:100BC00000F08CF9300446D55FEA497040D5F00555
:100BD00004D55FEAC87001D044F00104B00504D523
:100BE0005FEA887001D544F00204700504D55FEA1D
:100BF000487001D544F00404300529D518F0700F71
:100C000026D008F07000402815D006DC102809D046
:100C100020280AD0302816D10AE050280ED06028AB
:100C200011D10EE044F008040DE044F010040AE095
:100C300044F0200407E044F0400404E044F0800461
:100C400001E044F480742868816921F070018161B9
:100C5000296804204860002C05D0686A2043686237
:100C60002846FFF74DFEBDE8F09F70B5040003D0A5
:100C700094F8200010B104E0012070BD204600F07F
:100C800081F82068016841F00101016000F038FA44
:100C90000546052604E000F033FA401B0A2811D867
:100CA00020684068C007F6D02068016821F0020182
:100CB000016000F025FA05460BE000F021FA401B28
:100CC0000A2806D9606A40F40030606284F8206027
:100CD000D2E7206840688007EFD4207E0128206892
:100CE00001683DD021F080010160607E012820680C
:100CF000016838D021F040010160A07E0128206801
:100D0000016833D021F020010160E07E01282068D5
:100D100001682ED041F010010160207F0128206879
:100D2000016829D021F008010160607F0128206856
:100D3000016824D021F004010160D4E902010843D4
:100D4000D4E90412114308436168491E084321682D
:100D5000C86100206062012084F82000002070BD7E
:100D600041F08001C0E741F04001C5E741F02001BA
:100D7000CAE721F01001CFE741F00801D4E741F0C4
:100D80000401D9E710B586B0044614216846FFF780
:100D9000C1FA1B49206888422FD11A4800210268F5
:100DA00042F000720260006800F000700590154883
:100DB0001038026842F0080202600068022200F067
:100DC000080005900320CDE90210CDE900020920BA
:100DD000049069460C4800F095F800220521142083
:100DE00000F038FA142000F027FA0022052115201F
:100DF00000F030FA152000F01FFA06B010BD000018
:100E00000064004040380240000C024070477047C8
:100E1000704770477047000070B5044690F8200096
:100E2000012804D0606A40F40020606218E00220CB
:100E300084F820002068016821F00101016000F0C1
:100E40005FF905460EE000BF00F05AF9401B0A2882
:100E500008D9606A40F400306062052084F8200000
:100E6000012070BD20684068C007EDD1606270BD90
:100E700070B5044690F82000022804D0606A40F45F
:100E80008010606214E02068016841F00101016097
:100E900000F036F905460DE000F032F9401B0A2853
:100EA00008D9606A40F400306062052084F82000B0
:100EB000012070BD20684068C007EDD0206801683F
:100EC00021F002010160012084F82000002070BDA3
:100ED0007047704770477047704770477047000011
:100EE00070B5044600F00CF90546601C02D00448B9
:100EF0000078044400F004F9401BA042FAD370BD0E
:100F0000040000202DE9F84FDFF8BCA100220125E4
:100F100003264FF00F090AF1040BAAF1040E00BFDB
:100F20000B6805FA02F42340A34270D10F7907F051
:100F30000307012F01D0022F16D187684FEA42081C
:100F400006FA08FC27EA0C07D1F80CC00CFA08FCDA
:100F50004CEA070CC0F808C04768A7430C79C4F3F3
:100F6000001494403C4344600C79E443A4070AD045
:100F7000C4684FEA420C06FA0CF7BC438F6807FAC4
:100F80000CF72743C7600C7904F00304022C12D13C
:100F9000D40800EB840CDCF820405707FF0E09FA58
:100FA00007F824EA0804D1F8108008FA07F848EA9C
:100FB0000408CCF8208004684FEA420C06FA0CF7CB
:100FC000BC430F7907F0030707FA0CF727430760C4
:100FD0004C6814F4403F70D03C4C276847F480477D
:100FE0002760246822F0030704F480440094384CFE
:100FF00007EB040CDCF8084897074FEA177809FA62
:1010000008F7BC43334FB84202D1002724E054E034
:10101000314FB84201D101271EE0304FB84201D113
:10102000022719E02E4FB84201D1032714E02D4FBB
:10103000B84201D104270FE02B4FB84201D1052758
:101040000AE02A4FB84201D1062705E0284FB842EE
:1010500001D1072700E0082707FA08F72743CCF853
:101060000878DAF800405746D1F804C09C435FEA9C
:10107000CC2C00D51C433C60DBF800405F46D1F827
:1010800004C09C435FEA8C2C00D51C433C60DEF816
:1010900000407746D1F804C09C435FEA8C3C00D501
:1010A0001C433C60084F083F3C68D1F804C09C4397
:1010B0005FEACC3C00D51C433C60521C102AFFF474
:1010C0002FAFBDE8F88F0000083C014044380240D3
:1010D00000300140000002400004024000080240CD
:1010E000000C0240001002400014024000180240B0
:1010F000001C02400069084000D001207047000039
:101100000148806870470000040000200148006822
:1011100070470000107AFF1F014800687047000008
:10112000147AFF1F0148006870470000187AFF1FFB
:1011300002488168027811448160704704000020F1
:101140000B4810B5016841F400710160016841F479
:1011500080610160016841F480710160032000F04A
:1011600099F80F2000F006F800F04AF8002010BDB2
:10117000003C024030B505461C4887B00024016899
:1011800041F001010160006806A900F00100009033
:1011900001A800F0CBF900F0F9F915494000B0FBC7
:1011A000F1F11548134A491E026040F2E732C0E9E6
:1011B0000324C0E90114846100F0E0FB040012D1B3
:1011C0000D4800F009FC04000DD1192000F034F89E
:1011D000102D07D200222946192000F03BF80748BD
:1011E000056000E0012407B0204630BD44380240CD
:1011F00040420F0000000140EC05002008000020E4
:101200000C4882B0016841F480410160006800F43C
:10121000804000900748001F016841F08051016044
:101220000068002200F0805000900F21901E02B054
:1012300000F010B844380240002809DB00F01F021B
:10124000012191404009800000F1E020C0F8001128
:1012500070470000F0B40E4B1B680C46C3F302232A
:10126000C3F10705042D00D90425191D072901D252
:10127000002300E0DB1E012606FA05F1491E21408D
:1012800099409E40761E16403143F0BC02F008BAE9
:101290000CED00E0064900F0070208684FF6FF0376
:1012A000184040EA0220034A1043086070470000DB
:1012B0000CED00E00000FA05F8B5040005D094F844
:1012C00095042668002510B106E00120F8BD84F8D9
:1012D0009454204600F056F8032084F89504B6F1A3
:1012E000A04F00D1A571206802F05AF9207C8DF83A
:1012F000000094E80F0002F023F80226B8BB00219A
:10130000206802F08DF990BB002001270DE000BF9E
:1013100000EBC00104EB81014F750875C8850D769F
:10132000CD610D62401CC0B24D6221798142EFD87F
:10133000002011E000EBC00104EB810181F855525F
:1013400081F8540281F85852C1F85C52C1F86052D9
:10135000401CC0B2C1F8645221798142EAD8207C95
:101360008DF8000094E80F0002F05CF810B184F8EA
:101370009564AAE7657484F89574206802F044F8CF
:101380000020F8BD10B586B0044614216846FEF76B
:10139000C1FF2068B0F1A04F27D115480021026895
:1013A00042F001020260006800F0010005904FF475
:1013B000C05000900220CDE90101032003900A20D3
:1013C000049069460B48FFF79DFD0948001D016820
:1013D00041F08001016006481430016841F4804109
:1013E0000160006800F48040059006B010BD000068
:1013F00030380240000002402DE9F0470E4605005B
:1014000065D0DFF81481D8F80000F7B200F00700CB
:10141000B04207D288F80070D8F8000000F007004A
:10142000B04254D128683D4C810712D5400703D5FE
:10143000206840F4E05020602878000703D5206839
:1014400040F4604020602068A96820F0F000084364
:1014500020602878C0072DD03049686808390128F5
:1014600012D0022813D0032811D009688907002957
:101470002DDA216821F0030101432160FFF740FECE
:10148000814641F2883A0EE009688903EFE709686E
:101490008901ECE7FFF734FEA0EB0901514502D9C1
:1014A0000320BDE8F0872068696800F00C00B0EB0D
:1014B000810FEFD1D8F80010404601F00701B1428A
:1014C00007D90770006800F00700B04201D0012082
:1014D000E7E72878400705D52068E96820F4E05060
:1014E000084320602878000706D52068296920F481
:1014F000604040EAC100206000F058F82168084AC6
:10150000C1F30311515CC8400649086006480068F1
:10151000FFF730FE0020C4E7003C024008380240DC
:101520009053000810000020080000200F220260E5
:101530000C4A136803F003034360136803F0F003DD
:101540008360136803F4E053C36012684FF4E05300
:1015500003EAD20202610448006800F00700086054
:101560007047000008380240003C0240044805492A
:1015700000680968044AC1F38221515CC840704781
:101580001000002008380240A05300080448054914
:1015900000680968044AC1F34231515CC840704791
:1015A0001000002008380240A0530008154810B56C
:1015B000006810F00C02144813D04110042A0FD018
:1015C000082A0ED10F4C241F2268236802F03F0224
:1015D0005B0207D52068C0F38810A0FB010106E07C
:1015E000084610BD2168C1F38811A1FB000100234A
:1015F000FEF746FE2168C1F30141491C4900B0FBDA
:10160000F1F010BD083802400024F4002DE9F84F35
:1016100004006ED02078DFF84C93C007A9F10405D0
:101620004AD009F104000168C1F38101012908D001
:101630000068C0F3810002280AD1D9F800004002F6
:1016400006D52868800337D560680028E1D033E0EC
:101650006068B0F5803F10D0B0F5A02F286810D09A
:1016600020F480302860286820F48020286060689A
:10167000A8B1FFF745FD06460DE0286840F480302C
:10168000F4E740F480202860F7E700BFFFF738FD5B
:10169000801B642873D828688003F7D50CE0FFF717
:1016A0002FFD064605E000BFFFF72AFD801B6428DA
:1016B000F0D828688003F7D42078DFF8AC82800760
:1016C0004FF0000A3ED5A748001D016811F00C0F2D
:1016D00008D00068C0F3810002280BD1D9F80000BF
:1016E000400207D42868800716D5E068012800D199
:1016F00012E033E1E068B8B10120C8F80000FFF75C
:10170000FFFC064605E000BFFFF7FAFC801B02283D
:10171000C0D828688007F7D52868216920F0F8002C
:1017200040EAC10028600DE0C8F800A0FFF7E8FC1F
:10173000064604E0FFF7E4FC801B02281FD8286857
:101740008007F7D42078000722D5864F8748616943
:10175000703771B101210160FFF7D2FC064604E049
:10176000FFF7CEFC801B022809D838688007F7D520
:101770000EE0C0F800A0FFF7C3FC064605E082E0DB
:10178000FFF7BEFC801B02287DD838688007F7D49D
:101790002078400768D5DFF8CCB100270BF13C0B6F
:1017A000DBF80000C0000BD4DBF8001041F08051E2
:1017B000CBF80010DBF80000012700F0805000900B
:1017C0006B4E3068C00510D4306840F480703060D3
:1017D000FFF796FC009005E0FFF792FC0099401A95
:1017E000022850D83068C005F6D55E4EA0686C3629
:1017F00001280FD00528306810D020F0010030609B
:10180000306820F004003060A068B8B1FFF778FCC1
:1018100000900FE0306840F00100F4E740F0040071
:101820003060F7E7FFF76CFC0099411A41F288300D
:10183000814266D830688007F4D50EE0FFF760FC7F
:10184000009007E0FFF75CFC0099411A41F28830F4
:10185000814256D830688007F4D42FB1DBF80010ED
:1018600021F08051CBF80010A069C8B33D49091D93
:101870000968C1F3810102294AD00228504607D0E5
:10188000C8F8600000E03CE0FFF73AFC04463BE0AB
:101890004746C8F86000FFF733FC064605E000BF86
:1018A000FFF72EFC801B02282BD828688001F7D474
:1018B000D4E907010843A16A2E4A490802EB014115
:1018C000626A41EA8211084394F82C1040EA0161EF
:1018D000C9F8001001203866FFF712FC044606E044
:1018E0003EE000BFFFF70CFC001B022809D8286867
:1018F0008001F7D534E000BFFFF702FC001B02288F
:1019000002D90320BDE8F88F28688001F4D427E0CD
:101910000128F7D0D9F80000E26900F48001914273
:101920001CD1226A00F03F01914217D147F6C071E5
:10193000626A0140B1EB821F10D1A26A4FF0FF33FF
:1019400000F4403103EB5202B1EB024F06D194F8A0
:101950002C1000F07060B0EB016F01D00120D1E7D6
:101960000020CFE70438024000004742800E474283
:10197000007000400000FFFF7047704710B5040082
:1019800003D094F83D0010B107E0012010BD002005
:1019900084F83C00204600F01EF8022084F83D0048
:1019A000211D206801F07CFB012084F8460084F8AA
:1019B0003E0084F83F0084F8400084F8410084F839
:1019C000420084F8430084F8440084F8450084F819
:1019D0003D00002010BD704790F83D10012901D056
:1019E00001207047022180F83D100168CA6842F06A
:1019F0000102CA6000681149884214D0B0F1804FDA
:101A000011D00F4988420ED00E4988420BD00E49A2
:101A1000884208D00D49884205D00D49884202D03D
:101A20000C49884204D1816801F00701062903D0DE
:101A3000016841F001010160002070470000014091
:101A40000004004000080040000C00400004014079
:101A5000004001400018004070472DE9F041044665
:101A60000068C66805694FF00007A90713D5B107DC
:101A700011D5F91E01610120207720688069800757
:101A8000204602D0FFF7E8FF04E000F07EF8204691
:101A900000F07CF82777680716D5700714D5216801
:101AA0006FF004000861022020772068806910F43C
:101AB000407F204602D0FFF7CFFF04E000F065F83A
:101AC000204600F063F82777280715D5300713D58F
:101AD00021686FF008000861042020772068C06941
:101AE0008007204602D0FFF7B7FF04E000F04DF872
:101AF000204600F04BF82777E80616D5F00614D5F7
:101B000021686FF010000861082020772068C06904
:101B100010F4407F204602D0FFF79EFF04E000F063
:101B200034F8204600F032F82777E80708D0F007AD
:101B300006D021686FF001000861204600F028F807
:101B4000280608D5300606D521686FF080000861A8
:101B50002046FFF711FF680608D5700606D52168F4
:101B60006FF040000861204600F01CF8A8060AD576
:101B7000B00608D521686FF0200008612046BDE856
:101B8000F041FFF7FABEBDE8F081704770470000F2
:101B900000680349884201D1FFF7CABA70470000C4
:101BA00000000140704770B5040004D094F8410073
:101BB000002510B106E0012070BD84F84050204699
:101BC00000F024F8242084F841002068C16821F442
:101BD0000051C160204601F0F3FA2068016921F448
:101BE000904101612068416921F02A01416120682A
:101BF000C16841F40051C1606564202084F841004F
:101C000084F842006563002070BD000010B586B006
:101C1000044614216846FEF77DFB1449206888427B
:101C200021D113480021026842F0100202600068CE
:101C300000F0100005900E481438026842F00102CE
:101C40000260006800F0010005904FF4C060009051
:101C50000220CDE90101032003900720049069468A
:101C60000448FFF74FF906B010BD00000010014016
:101C700044380240000002402DE9F843044690F841
:101C80004100984616460D46202802D00220BDE8A5
:101C9000F88385B17EB100206064212084F8410082
:101CA000FFF72EFAA6848146E684A0682027B0F5C7
:101CB000805F02D003E00120E9E7206910B12E46E1
:101CC00000250EE000260CE08021204601F0FEFAFF
:101CD000A8B9C6B116F8010B21684860E08C401E17
:101CE000E084E08C4B464FF00002CDF800800028E5
:101CF000EAD14FF04001204601F0E8FA40B184F803
:101D000041700320C3E735F8020BC0F30800E3E796
:101D100084F841700020BAE7FEE700000F4810B5D4
:101D20000D4901600321416000214FF410228160C0
:101D3000C0E903124FF400124261017641768176C8
:101D4000C17601774177FEF790FF002803D0BDE808
:101D50001040FEF7CCBC10BD00640040980000208D
:101D600010B5044A0021044801F04EFF0349086001
:101D700010BD00006C530008411E00080000002048
:101D8000114808B5016841F004010160016801F0E3
:101D900004010091016841F080010160016801F0D7
:101DA00080010091016841F001010160016801F0CA
:101DB00001010091016841F008010160006800F034
:101DC0000800009008BD0000303802400C4810B5F3
:101DD0000A4901604FF4E1314160002181600C2229
:101DE000C160C0E904128161C161FFF7DCFE002817
:101DF00003D0BDE81040FEF77ABC10BD00100140D2
:101E0000C00000200C4810B54FF0A0410160042133
:101E100001710222C2710021817142728172C1720C
:101E200001738173C173FFF747FA002803D0BDE83F
:101E30001040FEF75CBC10BD08010020FEE7FEE785
:101E400098B0FFF763F90446FFF766F94440FFF7DF
:101E500069F944407E20B4FBF0F100FB11440020FE
:101E600006460746641C04902046FEF79DFB764814
:101E700001F006FCDFF8D4A14FF080415046CAF8CB
:101E80000810FEF7F2FE8046014671A001F0F8FB53
:101E9000DFF8E891D9F80020A9F10405296878A0B5
:101EA00001F0EEFB5FEA0800DFF800B24FF0000837
:101EB00001D07FA031E0FEF777FA002830D086A06D
:101EC00001F0DEFB6148FEF7A7FF00905F48FEF7D8
:101ED000A6FD024688A0009901F0D2FBDBF8003095
:101EE000D9F80020296892A001F0CAFB00980028C8
:101EF00018D09D4801F0C4FBD9F8000000F00101A2
:101F00009AA001F0BDFBA7A001F0BAFBB0A001F0C0
:101F1000B7FBBEA001F0B4FBCC4801F0B1FB40E040
:101F2000CBA0CDE7182105A8FEF7F4F9CFA16B46A9
:101F3000D1E90001CDE9160140F2231005900820F7
:101F40000990CDF81C80CDF8208016AA05A93F483D
:101F5000FEF7F2FB0146C7A0009A01F091FB322088
:101F600001F00FFE00213948FEF7CEFC014601903A
:101F7000CBA001F085FB0198002863D0CDF85080FC
:101F800014AB0DAA00213148CDF85480FEF7CDFCEA
:101F9000002858D0CBA000BF01F072FB2B48FEF701
:101FA00067FF2A48FEF764FFCFA0CAF8088001F057
:101FB00067FBD7A001F064FB3048001D0368D9F827
:101FC00000202E48001F0168DCA001F059FB3748B3
:101FD000001F0368354D2D1D2A68DBF80010E3A0B3
:101FE00001F04EFBED480368304808380268001FD6
:101FF0000168EBA001F044FB2968C1F30343C1F37E
:102000000250C1F309021D18C1F3016A02F1010C6B
:10201000ED1C1CFB05FCDFF8BC83401CB8FBFCF886
:102020000AF1010CCDE9000C0295EB48521C5B1C37
:1020300001F026FB4146E9A001F022FBF5A001F0EA
:102040001FFB01E25DE24EE2E4540008980000202C
:102050005B444941475D204C6F6F706261636B2048
:1020600048414C5F43414E5F496E6974207374610F
:102070007475733D256C640D0A0000000464004013
:102080005B444941475D204C6F6F706261636B2018
:102090004D43523D30782530386C58204D53523DD9
:1020A00030782530386C580D0A0000001864004064
:1020B0005B444941475D202A2A2A204C4F4F504219
:1020C00041434B20494E4954204641494C45442008
:1020D0002A2A2A0D0A0000005B444941475D204C32
:1020E0006F6F706261636B2066696C746572204605
:1020F00041494C45440D0A005B444941475D204C31
:102100006F6F706261636B2048414C5F43414E5F6B
:102110005374617274207374617475733D256C64BB
:102120002073746174653D256C750D0A0000000014
:102130005B444941475D204C6F6F706261636B2067
:102140004D43523D30782530386C58204D53523D28
:1021500030782530386C58204553523D3078253042
:10216000386C580D0A000000945400085B44494143
:10217000475D204D535220494E414B2062697420E7
:102180003D20256C75202873686F756C642062652E
:102190002030206166746572207374617274290D39
:1021A0000A0000005B444941475D20546869732080
:1021B0006973206120435249544943414C2068616E
:1021C0007264776172652069737375653A0D0A00F0
:1021D0005B444941475D2020202D20436865636BA7
:1021E000205044302F50443120617265206E6F744E
:1021F0002073686F7274656420746F2067726F75E6
:102200006E64206F72205643430D0A005B444941BF
:10221000475D2020202D20436865636B206E6F2072
:102220006F74686572207065726970686572616C40
:1022300020697320636C61696D696E67205041315C
:10224000312F504131320D0A00000000F4530008D4
:102250005B444941475D204C6F6F706261636B2046
:1022600066696C746572204F4B0D0A00DEADBEEFDF
:10227000010203045B444941475D204C6F6F70626B
:1022800061636B205458207374617475733D256CC1
:1022900064206D61696C626F783D256C750D0A0074
:1022A0005B444941475D204C6F6F706261636B20F6
:1022B0005258204649464F302066696C6C3D256C6B
:1022C000750D0A005B444941475D204C6F6F706299
:1022D00061636B2052582072656164204641494C0D
:1022E00045440D0A000000005B444941475D203D24
:1022F0003D3D204C4F4F504241434B205445535499
:1023000020454E44203D3D3D0D0A0D0A00000000D1
:102310005B444941475D2043414E31207265676906
:102320007374657273204245464F5245206E6F723A
:102330006D616C20696E69743A0D0A005B44494115
:10234000475D2020204D43523D30782530386C5871
:10235000204D53523D30782530386C58205453521C
:102360003D30782530386C580D0A00005B444941F7
:10237000475D2020204553523D30782530386C5839
:10238000204254523D30782530386C58204945520F
:102390003D30782530386C580D0A0000006600404A
:1023A0005B444941475D202020524630523D307801
:1023B0002530386C5820524631523D30782530381F
:1023C0006C5820464D523D30782530386C580D0AF7
:1023D0000000000080DE8002D85500085B444941BF
:1023E000475D2043616C63756C6174656420626154
:1023F000756472617465203D20256C752062707370
:10240000202874617267657420314D627073290DE4
:102410000A0000005B43414E20494E49545D205262
:10242000652D696E697469616C697A696E672043AC
:10243000414E20696E204E4F524D414C206D6F64CD
:10244000652E2E2E0D0A00004148FEF70EFC0146B7
:1024500040A001F015F9D9F800204848016848A0CB
:1024600001F00EF9D9F8000000F00105294651A04D
:1024700001F006F9002D14D05EA001F001F96A48C0
:1024800001F0FEF869A001F0FBF86FA001F0F8F888
:102490007CA001F0F5F886A001F0F2F88FA001F021
:1024A000EFF89DA001F0ECF8A94D02212846FEF7B7
:1024B00021FE804601212846FEF71CFE01464246C9
:1024C000A4A001F0DDF8AA4801F0DAF8A9A001F013
:1024D000D7F8FDF769FF002818D01D48FEF711FA5C
:1024E0000146AFA079E2B8A0119A0D9901F0C8F8A1
:1024F00014A81199FEF73AF83DA001F0C1F8BEA06A
:102500004AE5CDA001F0BCF8D94845E5D9A001F0D5
:10251000B7F8E1480368E04808380268001F01681E
:10252000DEA001F0ADF8DC4810300268DA4808306F
:102530000168E9A001F0A4F8D74838300268001F0C
:102540000168F2A001F09CF8FBA001F099F809E203
:10255000980000205B43414E20494E49545D20487D
:10256000414C5F43414E5F496E69742073746174DE
:1025700075733D256C640D0A000000000064004086
:102580005B43414E20494E49545D2041667465725B
:1025900020696E69743A204D43523D3078253038B9
:1025A0006C58204D53523D30782530386C580D0A08
:1025B000000000005B444941475D204D53522049D3
:1025C0004E414B3D256C752028313D7374696C6C10
:1025D00020696E20696E6974206D6F64652C2030EF
:1025E0003D6C65667420696E6974206D6F64652941
:1025F0000D0A00005B444941475D202A2A2A2057E2
:1026000041524E494E473A2043414E207374756300
:102610006B20696E20696E6974206D6F646521207E
:102620002A2A2A0D0A000000A85300085B444941E9
:10263000475D20506F737369626C652063617573C9
:1026400065733A0D0A0000005B444941475D202054
:102650002031292043414E207472616E7363656995
:10266000766572206E6F7420706F77657265642076
:102670006F72206E6F7420636F6E6E656374656435
:102680000D0A00005B444941475D2020203229208B
:1026900043414E482F43414E4C2073686F7274651E
:1026A00064206F7220737761707065640D0A00009A
:1026B0005B444941475D2020203329204E6F203163
:1026C00032306F686D207465726D696E6174696F08
:1026D0006E206F6E206275730D0A00005B444941E5
:1026E000475D2020203429205044302F5044312091
:1026F0004750494F20636F6E666C69637420776939
:10270000746820616E6F746865722070657269709C
:10271000686572616C0D0A005B444941475D204762
:1027200050494F2070696E206C6576656C73202867
:102730005044303D43414E315F52582C205044317B
:102740003D43414E315F5458293A0D0A00000000C4
:10275000000C02405B444941475D2020205041313C
:10276000313D257520504131323D25750D0A00005F
:10277000385400085B43414E20494E49545D206166
:102780007474656D7074696E672066696C746572C7
:1027900020636F6E6669672E2E2E0D0A0000000002
:1027A0005B43414E20494E49545D2066696C746517
:1027B00072206661696C65642C206572723D3078A8
:1027C0002530386C580D0A005B444941475D204C68
:1027D0006F6F706261636B205258204F4B212069EC
:1027E000643D30782530336C5820646C633D256C33
:1027F0007520646174613D005B444941475D202A56
:102800002A2A204C4F4F504241434B2054455354A9
:1028100020504153534544202D2043414E20636FA7
:102820006E74726F6C6C657220776F726B7321209F
:102830002A2A2A0D0A0000005B444941475D202AEC
:102840002A2A204C4F4F504241434B205445535469
:10285000204641494C4544202D206E6F205258207F
:102860006672616D6521202A2A2A0D0A0000000087
:10287000285500085B43414E20494E49545D20666F
:10288000696C74657220636F6E66696775726564E2
:10289000204F4B0D0A0000000C6600405B4449418C
:1028A000475D2046696C74657220726567733A20D3
:1028B000464D523D30782530386C5820464D3152C7
:1028C0003D30782530386C5820465331523D3078B1
:1028D0002530386C580D0A005B444941475D20465D
:1028E000696C74657220726567733A20464641319F
:1028F000523D30782530386C5820464131523D30B9
:10290000782530386C580D0A000000005B444941BE
:10291000475D2046696C746572303A204652313DFD
:1029200030782530386C58204652323D307825308A
:10293000386C580D0A0000005B43414E20494E4957
:10294000545D20617474656D7074696E67204841D0
:102950004C5F43414E5F53746172742E2E2E0D0AEC
:10296000000000008F48FEF757FA5FEA000830D0F9
:102970008C48FDF7C6FF05468A48FEF750F8024628
:102980002B46414688A000F07BFED9F80010D9F80C
:10299000001001F00102D9F80010002391A000F00E
:1029A0006FFEA80602D599A000F06AFE680602D55F
:1029B000A3A000F065FE280602D5AAA000F060FEE4
:1029C000E80502D5AFA000F05BFEB44800F058FE69
:1029D00005E0012604F58071B1A000F051FEBAA017
:1029E00000F04EFEDFF808A3DAF80030D9F8002036
:1029F000BF4808380168AFF2BC6000F041FEBC4837
:102A00000C300368BA4814300268DBF800105D46E9
:102A1000AFF2A86000F034FEB54808300268A0F1BB
:102A20000409D9F80010B3A000F02AFE2D68BBA05D
:102A3000290EC5F30213C5F3074200F021FEE80793
:102A400002D0C2A000F01CFEA80702D5C8A000F06A
:102A500017FE680702D5CFA000F012FE86B1C4EBC6
:102A6000C4000A21B0FBF1F201FB120564204543CA
:102A70002946D0A000F004FE284601F082F81BE0B1
:102A8000D4A000F0FDFD40F6B83001F07AF8DFA0E8
:102A900000F0F6FD4348FEF7BFF9050075D0414848
:102AA000FDF72FFF80463F48FDF7B9FF024643463A
:102AB0002946E2A000F0E4FD01F070F84FEA0005BD
:102AC00001F06CF88046002E5AD0FDF7A5FCB8EB5B
:102AD000050019D420460499FDF7C8FD5FEA0008F7
:102AE000304859D0FDF7ADFF00902E48FDF709FFA3
:102AF00006902C48FDF793FF02464146DEA0069B58
:102B000000F0BEFD05F57A757F1CB7F5FA7F37D367
:102B1000DBF800800027E8A000F0B2FD2148FDF7B7
:102B20007EFF0146C8F30212C8F30740CDE9000258
:102B30004FEA18634246E7A000F0A2FD1948FDF7EE
:102B400080FF804600211748FDF7DEFECDF80080AB
:102B5000D9F800200346DAF80010ECA000F090FD50
:102B6000DFF8E88302214046FEF7C4FA0190012114
:102B70004046FEF7BFFA0146F5A0019A00F080FD3D
:102B80000A2000F0FEFF9BE7FFE7012604F58071B5
:102B9000F7A000F075FD8FE7FDF753FF034604F53E
:102BA0008071FBE1980000205B43414E20494E4973
:102BB000545D207374617274206661696C65642C65
:102BC000207374617475733D256C64207374617433
:102BD000653D256C75206572723D30782530386C06
:102BE000580D0A005B444941475D204D53523D302A
:102BF000782530386C5820494E414B3D256C752066
:102C0000534C414B3D256C750D0A00005B43414E12
:102C100020444941475D2041434B206572726F72E9
:102C2000202D206E6F206F74686572206E6F646552
:102C300020726573706F6E64696E670D0A00000024
:102C40005B43414E20444941475D204269742072F4
:102C50006563657373697665206572726F720D0ABC
:102C6000000000005B43414E20444941475D204243
:102C7000697420646F6D696E616E74206572726F25
:102C8000720D0A005B43414E20444941475D204399
:102C90005243206572726F720D0A00007055000871
:102CA0005B43414E20494E49545D207374617274F8
:102CB0006564204F4B2C2074785F69643D30782523
:102CC00030336C580D0A00005B444941475D204396
:102CD000414E312072656769737465727320414695
:102CE0005445522073746172743A0D0A000000005A
:102CF000086400405B444941475D20202052463033
:102D0000523D30782530386C5820524631523D3093
:102D1000782530386C580D0A000000005B444941AA
:102D2000475D204553522064657461696C3A2052B6
:102D300045433D256C75205445433D256C75204C1D
:102D400045433D256C750D0A000000005B44494178
:102D5000475D202020455747463D31202845727267
:102D60006F72205761726E696E67290D0A0000004C
:102D70005B444941475D202020455056463D312067
:102D8000284572726F722050617373697665290DE0
:102D90000A0000005B444941475D202020424F4625
:102DA000463D3120284275732D4F666621290D0A54
:102DB000000000005B43414E20494E49545D2054C1
:102DC00058206F66667365743A20256C75206D73A4
:102DD0000D0A00005B43414E20494E49545D20439B
:102DE000414E206E6F742072656164792C2072658B
:102DF000747279696E6720696E2033207365636F22
:102E00006E64732E2E2E0D0A000000005B43414EAF
:102E100020494E49545D2072657472793A2061747C
:102E200074656D7074696E672048414C5F43414E14
:102E30005F53746172742E2E2E0D0A005B43414E57
:102E400020494E49545D207265747279206661692B
:102E50006C65642C207374617475733D256C6420FB
:102E600073746174653D256C75206572723D3078B0
:102E70002530386C580D0A005B43414E2054585D94
:102E8000206661696C65642C207374617475733D90
:102E9000256C642073746174653D256C75206572C2
:102EA000723D30782530386C5820667265653D2556
:102EB0006C750D0A000000005B444941475D202D00
:102EC0002D2D20506572696F646963202D2D2D0DA5
:102ED0000A0000005B444941475D205374617465FA
:102EE0003D256C75204553523D30782530386C585F
:102EF000205245433D256C75205445433D256C7556
:102F0000204C45433D256C750D0A00005B4449414A
:102F1000475D205453523D30782530386C5820524C
:102F20004630523D30782530386C58204649464F5F
:102F3000305F66696C6C3D256C7520667265655FF7
:102F400074783D256C750D0A00000000000C0240ED
:102F50005B444941475D20504430285258293D2563
:102F60007520504431285458293D25750D0A00001C
:102F70005B43414E20494E49545D2072657472791D
:102F800020737563636565646564212074785F6987
:102F9000643D30782530336C580D0A0003A0049A44
:102FA00000F06EFB0498401C0490ABE55B43414E7F
:102FB0002054585D2069643D30782530336C5820AA
:102FC0007365713D256C7520667265653D256C7570
:102FD0000D0A000010B54FF0E020006902F008F87B
:102FE000012803D0BDE8104001F036BD10BD00003F
:102FF00030B593B030216846FDF78CF914210CA848
:10300000FDF788F91D480025016841F080510160F5
:10301000006800F0805011901948016841F4804127
:1030200001600068022400F48040119001200090AB
:10303000000401908001CDE9064004200890A820FA
:10304000CDE9090407200B906846FEF7DFFA08B1C6
:1030500072B6FEE70CA90F2081E831004FF4A050B2
:103060000F904FF48050109005210CA8FEF7C4F982
:10307000002801D072B6FEE713B030BD40380240E0
:10308000007000400248016841F47001016070471F
:1030900088ED00E00148FEF7E0BC0000EC050020F0
:1030A000F0B50268274B284D284E294F294C4FF088
:1030B000804C984209D0604507D0A84205D0B04264
:1030C00003D0B84201D0A04204D122F0700E4A6869
:1030D00042EA0E0298421BD0604519D0A84217D090
:1030E000B04215D0B84213D0A04211D01A4DA84218
:1030F0000ED01A4DA8420BD0194DA84208D0194D38
:10310000A84205D0184DA84202D0184DA84203D1BC
:1031100022F44075CA682A434D6922F080022A438E
:103120008D68C5620D688562984201D0A04201D1C8
:1031300009690163016841F00401016001214161F5
:103140000260F0BD000001400004004000080040A3
:10315000000C0040000401400040014000440140D8
:103160000048014000180040001C004000200040C2
:1031700001680C3151E8002F22F4907241E80023DD
:10318000002BF5D10168143151E8002F22F0010223
:1031900041E80023002BF5D1016B012909D1016819
:1031A0000C3151E8002F22F0100241E80023002BDF
:1031B000F5D1202180F84210002101637047000002
:1031C00070B5044600680169E26821F4405111437A
:1031D00001612169A068E2690843616911430843FC
:1031E0002168CA6849F20C639A430243CA602068A6
:1031F0004169A26921F4407111434161314920685C
:10320000884202D03049884202D1FEF7BFF901E07E
:10321000FEF7ACF9E2690023192164253226B2F5E4
:10322000004F626828D0A0FB0101930F9200FDF7C8
:1032300027F80146B0FBF5F06FF01802504301EBA0
:10324000800006EB0010B0FBF5F000F0F002B1FBDF
:10325000F5F002EB0012B1FBF5F06FF018035843E4
:1032600001EB800006EB0010B0FBF5F000F00F0062
:1032700021681044886070BDA0FB010192185B4179
:10328000FCF7FEFF0146B0FBF5F00201B1FBF5F0E3
:103290006FF01803584301EB800006EBC000B0FB51
:1032A000F5F000F0F80002EB4002B1FBF5F05843F6
:1032B00001EB800006EBC000B0FBF5F000F007006A
:1032C000D6E7000000100140001401402DE9F8434A
:1032D000984617460D460446089E24E0701C22D0EE
:1032E000FDF70EFFA0EB0800B0421AD8CEB120685F
:1032F000C168490717D5802D15D0402D13D001681E
:10330000C94309070FD40168002540680090204692
:10331000FFF72EFF0820606484F840500120BDE8CC
:10332000F8830320FBE72068006835EA000004D03A
:103330000020B842D2D00020F1E70120F9E70000D8
:1033400070B50D460446C2F3072104981E460129B4
:103350001BD0E06840F04000E060204600F032F80A
:10336000C6F307210029A16B26D021F48031A16387
:10337000C5F30741012907D1A16841F00601A16009
:10338000A16841F02001A16070BDA16B21F48031E2
:10339000A163E1680A4A1140E160E16821F440114B
:1033A000E160C0B2012803D1E06840F48010E06021
:1033B000204600F007F8DBE741F48031D7E7000052
:1033C000BFFFBDFF08B5002100914FF07061009A6A
:1033D000521C00928A4210D80269002AF7DA0A22A7
:1033E0000092521E0092FCD1026942F00102026179
:1033F000009A521C00928A4201D9032008BD02693A
:10340000D207F5D1002008BDD0F8001E21F003013D
:10341000C0F8001ED0F8041841F00201C0F80418EA
:10342000002070472DE9F04F00250E460446174650
:103430002846294604EB8002C2F80411401C0F28DC
:10344000F8D3C3F307405FEA0009204616D0806B2B
:1034500020F40012A263A06B40F40022A26308468D
:1034600088462146C4F8000EC7F30720012817D06C
:103470000846D1F8001841F0030118E0D0F804081C
:1034800040F00202C4F80428A06B40F40012A263CA
:10349000A06B20F40022A263A06B20F48022DDE761
:1034A000300E0846D1F8001801D041F00101C0F8F3
:1034B0000018102100F096F800B10125204600F018
:1034C00075F800B101254046C4F81088C4F8148886
:1034D000C4F81C8800214FF0006B4FF0904E4FF65F
:1034E0007F3AF2B215E000BF04EB4113D3F800C9F4
:1034F000BCF1000F06DA11B1C3F800E904E0C4F82A
:1035000000B901E0C3F80009C3F81009C3F808A91D
:10351000491C8A42E8D8002115E000BF04EB4113A2
:10352000D3F800CBBCF1000F06DA11B1C3F800EB01
:1035300004E0C4F800BB01E0C3F8000BC3F8100BB3
:10354000C3F808AB491C8A42E8D8D4F8101821F413
:103550008072C4F81028A0616FF080406061C6F3EB
:10356000074018B9A06940F01000A061A0690A499D
:103570000843A061C7F3074018B1A06940F00800F4
:10358000A061B9F1010F03D1A06904490843A0610A
:103590002846BDE8F08F000000383C800400004061
:1035A000816821F0010181600020704708B5002189
:1035B0004FF070620091009B5B1C009393420AD80D
:1035C0000369002BF7DA0091102101610099491C71
:1035D0000091914201D9032008BD0169C906F5D4C3
:1035E000002008BD18B500224FF070630092009CC7
:1035F000641C00949C420CD80469002CF7DA0092F9
:10360000202242EA811101610099491C00919942EE
:1036100001D9032018BD01698906F5D4002018BD21
:1036200070B50446C068002520F0C040E060012964
:1036300001D079B120E0E06840F00050E0600A205D
:10364000FDF74EFC60690A3510F0010F10D1C82D4E
:10365000F5D30DE0E06840F08040E0600A20FDF71F
:103660003FFC60690A3510F0010F01D0C82DF5D379
:10367000C82D01D0002070BD012070BDFEE7000004
:103680000FB4054B10B503A9044A029800F028F8BE
:1036900010BC5DF814FB0000453B000894000020BE
:1036A0000907090E002804DB00F1E02080F800146F
:1036B000704700F00F0000F1E02080F8141D704703
:1036C00002E008C8121F08C1002AFAD170477047EB
:1036D000002001E001C1121F002AFBD17047000049
:1036E0002DE9FF4F8DB00F460546002606E0252840
:1036F0000BD0DDE90F1290476D1C761C287800284E
:10370000F5D111B03046BDE8F08F0024A246A146A5
:103710000122EC4900E0044315F8013F203B02FA86
:1037200003F00842F7D128782A2810D06FF02F0232
:103730002878A0F13001092914D80AEB8A0102EB9C
:10374000410144F0020400EB010A6D1CF0E701CFD7
:103750005FEA000A03D544F40054CAF1000A44F0B9
:1037600002046D1C28782E2817D115F8010F44F09B
:1037700004042A280ED06FF02F022878A0F130011F
:1037800009290AD809EB890102EB410100EB010983
:103790006D1CF2E757F8049B6D1C28786C280FD03D
:1037A00006DC4C2817D068280DD06A2814D104E014
:1037B000742810D07A280FD10DE044F400140AE0E8
:1037C00044F4801401E044F440146978814202D149
:1037D00004F580146D1C6D1C2A786E2A1FD00CDC39
:1037E000632A31D004DC002A8BD0582A11D1A3E0FF
:1037F000642A68D0692A0CD165E0732A2ED004DCD3
:103800006F2A73D0702A04D19BE0752A6FD0782A72
:103810006ED01046DDE90F129047761C50E1C4F3DC
:103820000250022806D0032809D0042801CF09D06D
:10383000066045E101CFF117C0E9006140E101CF29
:1038400006803DE106703BE117F8040B8DF800009F
:1038500000208DF80100EB46012003E057F804BB7F
:103860004FF0FF3061074FF0000102D40DE008F186
:103870000101884649450FDA8045F8DB1BF808103E
:103880000029F4D108E008F1010188468142FADB01
:103890001BF808100029F6D1DDE90F23AAEB080078
:1038A0008146214600F036F9304400EB080604E07A
:1038B000DDE90F121BF8010B9047B8F10108F7D2B0
:1038C00021464846F7E00A21C4F302534FF0000BAB
:1038D0000891022B04D001CFC117032B09D00AE0B5
:1038E000FF1D27F00707F7E8020108E032E01FE0BC
:1038F00020E000B2C117042B01D140B2C117031E52
:1039000071F1000307DA4FF0000CD0EB0C006CEB08
:1039100001012D2302E0230504D52B238DF824304B
:10392000012303E0E30701D02023F7E7984658E09E
:103930000A2110E010210EE010204FF0000B08903B
:103940000CE010214FF0000B44F004044FF0080984
:10395000089103E008214FF0000B0891C4F30253D3
:10396000022B04D001CF0021032B06D006E0FF1D5F
:1039700027F00707F7E8020103E080B2042B00D12B
:10398000C0B24FF0000823072BD5702A07D0DDF80E
:1039900020C08CF0100C5CEA0B0C05D00EE040232C
:1039A0008DF82430012308E050EA010306D03023CB
:1039B0008DF824308DF8252002239846DDF820C0AC
:1039C0008CF0080C5CEA0B0C0BD150EA010301D11E
:1039D000630706D530238DF824304FF00108A9F194
:1039E0000109582A04D038A20B9208AA0A920BE0C7
:1039F0003AA2F9E75B46089AFCF742FC0B9B9B5CFA
:103A00000A9A521E0A92137050EA0102F2D10A98E1
:103A1000ADEB000000F1200B600702D524F48034E8
:103A200001E04FF00109D94502DDA9EB0B0000E0F0
:103A3000002000EB0B0141440890AAEB010AE003CF
:103A400006D4DDE90F232146504600F063F8064412
:103A50004FF0000908E009A911F80900DDE90F128B
:103A6000904709F10109761CC145F4DBE0030CD550
:103A7000DDE90F232146504600F04CF8064404E0EF
:103A8000DDE90F1230209047761C0899481E0890F7
:103A90000029F5DC08E00A980A990078491C0A9187
:103AA000DDE90F129047761CBBF10001ABF1010B71
:103AB000F1DC21465046DDE90F2300F019F80644F9
:103AC0006D1C1BE60928010030313233343536379E
:103AD000383961626364656600000000303132335A
:103AE00034353637383941424344454600000000FA
:103AF0002DE9F041044600251E461746880404D4EB
:103B000005E039462020B0476D1C641EF9D52846D3
:103B1000BDE8F0812DE9F041044600251E4690469F
:103B2000C80301D5302700E02027880404D505E02C
:103B300041463846B0476D1C641EF9D52846BDE89D
:103B4000F081000013B54FF0FF33012269460248AF
:103B5000FEF792F800981CBDC0000020FDF7F0FAB7
:103B6000FFF746FAFEF70CF9FEF7D8F8FEF72EF944
:103B7000FEF748F900F01AF8FEF7F2F800F028F81E
:103B8000FEE710B5EFF3058111B16FF0050403E016
:103B9000002408B100F000FE204610BDEFF30580C0
:103BA00008B101F039BA01F031BA0000EFF3058035
:103BB00010B16FF0050070470448016811B14FF073
:103BC000FF30704701210160002070476400002031
:103BD00010B5EFF3058010B16FF0050010BD084877
:103BE0000168012902D04FF0FF3010BD054A0021C5
:103BF00082F8141D0221016000F036FE002010BD85
:103C0000640000200BE000E02DE9FF414FEA0103D2
:103C10004FF00005EFF30581039549BB40B38027C2
:103C2000182100244AB3166806B1344696691EB1BD
:103C30003146761E382E02D21679F60703D00020C0
:103C400004B0BDE8F081566906B1B708D2F808C0E3
:103C5000BCF1000F0DD0D5685C2D18D312693AB1B4
:103C600036B18DE806103A46214601F096F90390E8
:103C70000DE0D6685EB912694AB903AACDE900120F
:103C8000BAB2214601F05CF9012800D003950398EF
:103C9000D6E700002DE9F041134C0F460546E668D3
:103CA0002068001D00F044FC681C07D137B1216872
:103CB000BDE8F0410D48091D00F08ABC206835447C
:103CC000B5424560216805D2A06BBDE8F041091DF1
:103CD00000F066BC606B091D00F062FCA06A8542C2
:103CE00000D2A562BDE8F08114000020240B002062
:103CF0002DE9F041054600F077FC2D4CA068401CF2
:103D0000A06020682B4F10B1606930B32BE02560B4
:103D1000A068012827D1002606EB860007EB80006B
:103D200000F030FC761C382EF6D3234800F02AFC35
:103D30002148143000F026FC1F48283000F022FCF7
:103D40001D483C3000F01EFC1B48503000F01AFCAF
:103D5000194860631430A06305E02068E96AC06A0E
:103D6000884200D82560606A401C60626864E86A26
:103D70002169884200D9206100EB800007EB8000B8
:103D8000291D00F025FC00F04FFC606900280CD0D4
:103D90002068E96AC06A884207D208494FF080501B
:103DA0000860BFF34F8FBFF36F8FBDE8F081000055
:103DB0001400002074060020D40A002004ED00E066
:103DC00038B500F011FC104C2068C8B90F4800F05D
:103DD000D9FB0E48143000F0D5FB0C48E0601430DD
:103DE00020610A4B0020F03B009003F150021021AB
:103DF0000A2000F047FE206010B105A100F096FCFB
:103E0000BDE8384000F010BC50000020280C002015
:103E1000546D72510000000030B4026C0B46002A51
:103E20000BD0C1681144C1608468A14201D301680C
:103E3000C16030BC1846FCF754BA30BC70472DE95D
:103E4000F041856B174604460026026C82B1C7B16B
:103E5000E068FCF746FAE168206C091AE160226824
:103E6000914202D2A168081AE060022F16D017E032
:103E70002068A8B9A06801F03BF906460020A060C0
:103E80000EE06068FCF72DFA216C60680844606001
:103E9000A168884204D32068606001E005B16D1E0E
:103EA0006D1CA5633046BDE8F08110B5044690F85E
:103EB000590058B101280CD002280FD0502080F3AF
:103EC0001188BFF34F8FBFF36F8FFEE7206B00F0B9
:103ED000BFFB2046BDE8104000F0BABB10BD00009B
:103EE00010484FF47051420706D0C01D0D4920F014
:103EF0000700411AC1F570510B4A00230144C2E981
:103F000000030839183A21F0070111604B600B607B
:103F10000B1AC0E9001393604FF0004053605061EA
:103F2000704700000813002080000020144E154C3C
:103F3000A6F29C474FF08058DFF84C9012E000BF8B
:103F400000F052FBF068C568281D00F0F1FAA06887
:103F5000401EA0606068401E606000F065FB28465F
:103F6000FFF7A3FF60680028EAD138680128F9D973
:103F7000C9F80080BFF34F8FBFF36F8FF2E70000E7
:103F8000100B00201400002004ED00E070B51D4669
:103F9000049C51B1C4F80020C4E90F01012120465E
:103FA00000F0A4FD84F84C5070BD2460F4E70000DC
:103FB0002DE9F05F8846DDE90B94154683469100B4
:103FC0009A460A9EA522206BFCF79DF96FF003012B
:103FD000206B01EB8501084420F00707780707D024
:103FE000502080F31188BFF34F8FBFF36F8FFEE730
:103FF0000025B8F1000F0FD05FF00000221818F86C
:10400000001082F8341018F8001011B1401C10286C
:10401000F4D384F8435001E084F83450382E00D3B0
:104020003726E662C4E91365201D00F0B6FA04F1F4
:10403000180000F0B2FA2461C6F138006462A06191
:10404000656584F8585052465946384600F05AFA89
:104050002060B9F1000F01D0C9F80040BDE8F09F21
:1040600030B5114900E011460A688242FBD34B6823
:104070005C18844203D1406818444860084643688D
:104080001C18944209D1084C183C2468A24209D05B
:1040900052681A4442600A6812680260814200D085
:1040A000086030BD0460F9E78000002070B500248E
:1040B00041600B4D0061914206D8D11A826991424C
:1040C00006D2011D286907E09A4203D2994201D322
:1040D000012403E0011DE86800F062FA204670BD8B
:1040E0005000002010B5044600F07EFAA06B28B105
:1040F0005FF0000400F098FA204610BD0124F9E7B3
:1041000030B589B03C4D6EE00498002806DADDE950
:104110000601059A90470498002864DB069C6069B4
:1041200010B1201D00F004FA03A800F0D7F80246F1
:1041300004980A2857D2DFE800F00505052D334A18
:1041400005052D3394F8280040F0010084F828007C
:104150000599A069059B01442046FFF7A7FF68B3B6
:10416000216A2046884794F8280040073BD5002064
:1041700000900598A169002342181946204601F0D5
:10418000C1F8D8B9502080F31188BFF34F8FBFF327
:104190006F8FFEE714F8280F20F00100207022E056
:1041A00094F8280040F0010084F828000598A061E8
:1041B00028B1811813462046FFF778FF13E05020FE
:1041C00080F31188BFF34F8FBFF36F8FFEE794F832
:1041D0002800810703D4204600F03AFA03E020F0DB
:1041E000010084F82800002204A9286800F0D2FD0C
:1041F000002889D109B030BD500000202DE9FC41D4
:104200000F46054600F074FB01A800F067F804466D
:10421000019818B100F0E4FFBDE8FC81254EAFB174
:1042200030690068D0B30027291B3A46306800F097
:1042300091FA00F0D5FF0028EED11F494FF08050D1
:104240000860BFF34F8FBFF36F8FE5E7A542EBD850
:1042500000F0C6FFF0682746C068C468201D00F063
:1042600067F994F82800410719D5A0692B46411930
:104270003A462046FFF71AFFA8B100200346014640
:1042800000902A46204601F03DF860B9502080F3A6
:104290001188BFF34F8FBFF36F8FFEE707E020F069
:1042A000010084F82800216A20468847B4E70127E6
:1042B000BAE700005000002004ED00E00648416B22
:1042C000096829B1416BC968C9684968816270474A
:1042D0004FF0FF31FAE700001400002070B50546EA
:1042E00000F094FE064E0446B068844203D200F00B
:1042F00009F8012000E0002028602046B46070BD6D
:1043000050000020F8B5194D20E0C068C468066868
:10431000201D00F00DF9216A2046884794F82800F6
:10432000400713D5A0693044B04206D924616060CB
:10433000211DE86800F034F908E00020034601463A
:1043400000903246204600F0DDFF38B1E868016891
:104350000029DAD12969C5E90310F8BD502080F39E
:104360001188BFF34F8FBFF36F8FFEE7500000201F
:1043700008484068401C4FF0500080F3118804D07A
:10438000BFF34F8FBFF36F8FFEE7BFF34F8FBFF3C6
:104390006F8FFEE788000020074CE068016841B19C
:1043A000C0680021D0F80000FFF728FFFFF7A8FE43
:1043B000F3E701210020F7E7500000202DE9F0414C
:1043C000044600F011F994F9455004F1240609E07F
:1043D000606A48B1304600F0CBFE08B100F00AFA3E
:1043E0006D1E6DB2002DF3DC4FF0FF3684F8456092
:1043F00000F01AF900F0F8F894F9445004F11007AD
:1044000009E0206948B1384600F0B2FE08B100F07A
:10441000F1F96D1E6DB2002DF3DC84F84460BDE847
:10442000F04100F001B900002DE9F04105460027F8
:1044300000F05EFA324E306808B9FFF751FD70693E
:1044400005424ED1C5B3083568070ED005F0070008
:10445000C0F108000544680707D0502080F3118898
:10446000BFF34F8FBFF36F8FFEE72DB370688542A8
:1044700037D82348183001460C6801E020460C4626
:104480006168A94202D221680029F7D131688C42C3
:1044900027D007682168016060680837411B102930
:1044A0000FD96019420708D0502080F31188BFF35C
:1044B0004F8FBFF36F8FFEE713E041606560FFF73A
:1044C000CFFD61687068401A7060B268904200D297
:1044D000B060706901430020C4E90001F068401C2D
:1044E000F06000F07DFE780707D0502080F311883F
:1044F000BFF34F8FBFF36F8FFEE73846BDE8F08103
:104500006800002010B5031F4FF080741C601B1F53
:1045100021F001011960191F044B0B6014390A6066
:10452000091F6FF0020244380A6010BD7143000891
:10453000D0E9013201699A60D0E901235A604A68E2
:10454000824201D182684A60002202610868401EEE
:104550000860086870470000034B036003F15C00CB
:104560000860802010607047500C0020044B0360EE
:1045700003F15C0008604FF4807010607047000029
:10458000AC0E002000F108014FF0FF32C0E901122B
:10459000C160016100210160704700210161704725
:1045A00030B50B685A1C02D000F1080202E0026923
:1045B00004E02246546825689D42FAD953684B604E
:1045C00099608A60516008610168491C016030BDD2
:1045D00042684A6093688B60936859609160086193
:1045E0000168491C01607047502080F31188BFF3B7
:1045F0004F8FBFF36F8F0A494868401C48600128FD
:104600000CD10848006810F0FF0F07D0502080F34D
:104610001188BFF34F8FBFF36F8FFEE77047000025
:104620008800002004ED00E00849486828B1401ED9
:10463000486001D180F311887047502080F31188C1
:10464000BFF34F8FBFF36F8FFEE70000880000209D
:1046500070B500282AD0164DA0F108046068696979
:10466000084207D1502080F31188BFF34F8FBFF36A
:104670006F8FFEE722683AB1502080F31188BFF3B4
:104680004F8FBFF36F8FFEE78843606000F030F913
:1046900060686968084468602046FFF7E1FC2869A3
:1046A000401C2861BDE8704000F09ABD70BD00005C
:1046B000680000204FF0E020002101618161054980
:1046C0004FF47A720968B1FBF2F1491E416107218A
:1046D000016170471000002010B5FBF7BBFD1149C8
:1046E00010280ED300F1E02090F8F0030A789042F1
:1046F00007D2502080F31188BFF34F8FBFF36F8F25
:10470000FEE709480068896800F4E060884207D93C
:10471000502080F31188BFF34F8FBFF36F8FFEE7F8
:1047200010BD0000880000200CED00E010B5084B23
:10473000002200BF53F832401CB1521C082AF9D3A2
:1047400010BD43F8321003EBC201486010BD0000F9
:104750003406002070B515460E460446FFF744FFA8
:1047600094F944100020491C01D184F8440094F9C4
:104770004510491C01D184F84500FFF755FFA06B97
:1047800028B92A46314604F1240000F051F82046A9
:10479000BDE87040FFF712BE10B5020014D00F48FC
:1047A000006B38B1502080F31188BFF34F8FBFF3F7
:1047B0006F8FFEE700F09CF800211046FFF76AFAC1
:1047C00000F00EFD002807D105494FF08050086029
:1047D000BFF34F8FBFF36F8F10BD00001400002098
:1047E00004ED00E002490A6A0260C968416070474E
:1047F0001400002001490120C86170471400002006
:1048000010B50C4650B1094909681831FFF7C8FEC8
:104810002046BDE810400121FFF73CBA502080F34C
:104820001188BFF34F8FBFF36F8FFEE71400002096
:1048300070B514460D4668B10A4909681831FFF78A
:10484000C7FE0CB14FF0FF3521462846BDE8704049
:10485000FFF720BA502080F31188BFF34F8FBFF3CA
:104860006F8FFEE71400002030B587B0002403945A
:1048700005AA04A903A80494FFF76EFEDDE903016D
:104880000094CDE90110002315A11748059A00F006
:1048900084FB164D0028E8621FD000F003FD0128BC
:1048A00009D0401C19D1502080F31188BFF34F8FDD
:1048B000BFF36F8FFEE7502080F31188BFF34F8F57
:1048C000BFF36F8F4FF0FF30A86201206861EC608A
:1048D00007B0BDE8304000F045B807B030BD00007B
:1048E00049444C45000000002D3F00081400002002
:1048F0000248016B491C016370470000140000204E
:10490000164810B5016B11B10121C16110BD002124
:10491000C1610169124A01E0B9B1491E01EB81038D
:1049200052F82330002BF7D001EB810302EB830216
:1049300002F1080453685B685360A34201D15B68CD
:104940005360DA680260016110BD502080F3118865
:10495000BFF34F8FBFF36F8FFEE7000014000020FE
:10496000740600201CB537480168374A914207D1C8
:10497000502080F31188BFF34F8FBFF36F8FFEE796
:1049800000683149491E884207D1502080F31188C0
:10499000BFF34F8FBFF36F8FFEE72C49087801906C
:1049A000FF20087008788DF800009DF800009DF841
:1049B000002000F0F000904207D0502080F31188D2
:1049C000BFF34F8FBFF36F8FFEE79DF80000204CC1
:1049D00000F0500020700720A06005E09DF8002046
:1049E00052008DF80020401E9DF800201206F5D4DC
:1049F000A060032807D0502080F31188BFF34F8FA9
:104A0000BFF36F8FFEE74FF44070A060019808700D
:104A10000C482030016841F470010160016841F0E8
:104A200070410160FFF746FE00206060FBF7DAFB93
:104A30000848016841F040410160FBF7BFFB0020DE
:104A40001CBD000000ED00E071C20F4100E400E079
:104A50008800002034EF00E010B5502080F311886A
:104A6000BFF34F8FBFF36F8F00F0DEFA18B1044928
:104A70004FF080500860002080F3118810BD0000C6
:104A800004ED00E038B5049D18B153B1CAB181B14D
:104A900020E0502080F31188BFF34F8FBFF36F8F5A
:104AA000FEE7502080F31188BFF34F8FBFF36F8F65
:104AB000FEE7502080F31188BFF34F8FBFF36F8F55
:104AC000FEE739B1502080F31188BFF34F8FBFF359
:104AD0006F8FFEE750241C46012384F846302B4696
:104AE0000094FFF753FA204638BD000070B50D461C
:104AF000040025D0FFF778FDD4E90F20216802FBE0
:104B00000011A1600021A163216861600A46D4E917
:104B10000F01401E00FB0121E16021464FF0FF30F4
:104B200001F8440F487004F110008DB1FFF72AFD21
:104B300004F12400FFF726FDFFF776FD012070BD8C
:104B4000502080F31188BFF34F8FBFF36F8FFEE7C4
:104B500021690029F0D000F00BFB0028ECD00449BB
:104B60004FF080500860BFF34F8FBFF36F8FE3E7C4
:104B700004ED00E02DE9FF4782B01D468A464FF064
:104B80000008040003D0BAF1000F08D011E0502053
:104B900080F31188BFF34F8FBFF36F8FFEE7206C58
:104BA00038B1502080F31188BFF34F8FBFF36F8F60
:104BB000FEE7022D0AD1E06B012807D0502080F3D8
:104BC0001188BFF34F8FBFF36F8FFEE700F010FA2D
:104BD0003F4F4FF000094FF0805648B9049838B164
:104BE000502080F31188BFF34F8FBFF36F8FFEE724
:104BF000FFF7FAFCA06BE16B884207D3022D05D0CA
:104C00000498D0B1B8F1000F1AD01EE02A465146E0
:104C10002046FFF714F9616A19B104F1240000F08D
:104C2000A7FA20B13E60BFF34F8FBFF36F8FFFF73E
:104C3000FBFC012006B0BDE8F087FFF7F5FC22E0A1
:104C40006846FFF7CFFD4FF00108FFF7EDFCFFF7D7
:104C50004FFEFFF7C9FC94F94400401C01D184F8D1
:104C6000449094F94500401C01D184F84590FFF729
:104C7000DBFC04A9684600F029F930B12046FFF7B3
:104C80009DFB00F0ADFA0020D4E7FFF7ADFCA06B70
:104C9000E16B884213D1FFF7C7FC04F110000499BF
:104CA000FFF7AEFD2046FFF789FB00F099FA0028D8
:104CB0009ED13E60BFF34F8FBFF36F8F98E7FFF732
:104CC000B3FC2046FFF77AFB00F08AFA90E7000079
:104CD00004ED00E02DE9F0471F46904689460400A8
:104CE00003D0B9F1000F08D011E0502080F31188F3
:104CF000BFF34F8FBFF36F8FFEE7206C38B15020AA
:104D000080F31188BFF34F8FBFF36F8FFEE7022F41
:104D10000AD1E06B012807D0502080F31188BFF33F
:104D20004F8FBFF36F8FFEE7FFF7D6FC5020EFF3F6
:104D3000118680F31188BFF34F8FBFF36F8FA06B85
:104D4000E16B884206D3022F04D0002086F311883D
:104D5000BDE8F08794F94550A06B3A464946204695
:104D6000FFF76DF8681C04D06D1C84F845500120D5
:104D7000ECE7606A0028FAD004F1240000F0F8F9AA
:104D80000028F4D0B8F1000FF1D00121C8F80010CC
:104D9000EDE700002DE9F747002683B08A460400BE
:104DA00003D0BAF1000F08D011E0502080F3118831
:104DB000BFF34F8FBFF36F8FFEE7206C38B15020E9
:104DC00080F31188BFF34F8FBFF36F8FFEE700F0C2
:104DD0000FF9DFF8F4804FF000094FF0805748B921
:104DE000059838B1502080F31188BFF34F8FBFF37F
:104DF0006F8FFEE7FFF7F8FBA56BC5B15146204664
:104E0000FFF70AF86D1EA563206950B104F1100088
:104E100000F0AEF928B1C8F80070BFF34F8FBFF3B0
:104E20006F8FFFF701FC012006B0BDE8F087059801
:104E300008B11EB106E0FFF7F7FB27E06846FFF771
:104E4000D1FC0126FFF7F0FBFFF752FDFFF7CCFB8B
:104E500094F94400401C01D184F8449094F9450031
:104E6000401C01D184F84590FFF7DEFB05A9684698
:104E700000F02CF8002820460AD0FFF79FFA00F037
:104E8000AFF92046FFF72EF90028B3D00020CBE77A
:104E9000FFF728F990B104F124000599FFF7B0FC61
:104EA0002046FFF78BFA00F09BF90028A2D1C8F842
:104EB0000070BFF34F8FBFF36F8F9BE72046FFF764
:104EC0007DFA00F08DF995E704ED00E02DE9F04161
:104ED0000C46050011D0C4B1FFF786FB174BDA680A
:104EE0006E682068911B471C17D02F681B6A9F4271
:104EF00019D0964217D8012410E0502080F3118871
:104F0000BFF34F8FBFF36F8FFEE7502080F3118800
:104F1000BFF34F8FBFF36F8FFEE70024FFF784FBD3
:104F20002046BDE8F081884205D9401A2060284615
:104F3000FFF758FCF1E700202060DCE714000020B8
:104F40002DE9FF5F8346DDE90E87994616468A46BE
:104F50009000FFF769FA05001CD05C20FFF764FAA7
:104F6000040014D00020256384F85900CDE90240E4
:104F7000CDE900874B46324651465846FFF718F8B0
:104F80002046FEF7B5FE012004B0BDE8F09F28469C
:104F9000FFF75EFB4FF0FF30F6E7F0B585B0DDE9D7
:104FA0000B640A9DA6B1DCB15C270097266302263C
:104FB00084F85960002604AFCDE90246CDE90057D8
:104FC000FEF7F6FF2046FEF793FE049805B0F0BD0D
:104FD000502080F31188BFF34F8FBFF36F8FFEE730
:104FE000502080F31188BFF34F8FBFF36F8FFEE720
:104FF0000548416919B1006B18B1002070470120C4
:105000007047022070470000140000200148C0686B
:10501000704700001400002010B5FFF75DFB014849
:10502000C06810BD140000202DE9F0412E4C00276F
:10503000206B28B1A069401CA0613846BDE8F08112
:10504000E668761CE66013D1606B006838B15020CA
:1050500080F31188BFF34F8FBFF36F8FFEE7606B54
:10506000A16B6163A063206A401C2062FFF726F9F0
:10507000A06ADFF87880864209D3606B0068A0B12F
:10508000606BC068C5686868864211D2A0622068FB
:10509000C06A00EB800158F82100012800D90127DF
:1050A000E0690028C9D00127C7E74FF0FF30EDE7DE
:1050B000281DFFF73DFAA86A18B105F11800FFF79F
:1050C00037FAE86A2169884200D9206100EB800143
:1050D00008EB8100291DFFF77BFAE86A2168C96A9D
:1050E0008842CAD30127C8E71400002074060020B4
:1050F00070B504004FF0000133D01B4D2868844286
:1051000007D0502080F31188BFF34F8FBFF36F8F0C
:10511000FEE7206D38B1401E2065E36CE26A9A42DA
:105120001FD040B11DE0502080F31188BFF34F8F96
:10513000BFF36F8FFEE7201DFFF7FAF9E06CE06226
:10514000C0F13800A061E06A2969884200D928616D
:10515000064900EB800001EB8000211DFFF738FAC3
:105160000121084670BD00001400002074060020D4
:1051700070B5C068C46854B104F118000646FFF762
:10518000D7F9144D286B50B13146134815E0502023
:1051900080F31188BFF34F8FBFF36F8FFEE7201DA1
:1051A000FFF7C6F9E06A2969884200D928610B49EE
:1051B00000EB800001EB8000211DFFF709FAE06A97
:1051C0002968C96A884202D90120E86170BD0020BF
:1051D00070BD000014000020FC0A002074060020AE
:1051E0002DE9F0472C4D00242746286B38B1FFF7F6
:1051F000FBF9286B401E2863286B40B146E0502025
:1052000080F31188BFF34F8FBFF36F8FFEE7A9685C
:10521000224E0120D1B3A6F5916980463068E0B1F5
:10522000F068C46804F11800FFF782F9201DFFF749
:105230007FF9E06A2969884200D9286100EB800182
:1052400009EB8100211DFFF7C3F9E06A2968C96AEB
:105250008842E3D3C5F81C80E0E70CB1FFF72EF8D5
:10526000AC694CB14FEA0806FFF7DEFE00B1EE6113
:10527000641EF9D10020A861E86938B10849012706
:1052800038070860BFF34F8FBFF36F8FFFF7CCF97C
:105290003846BDE8F087000014000020FC0A00201A
:1052A00004ED00E010B586B0FEF78AFD114C2068D1
:1052B000B8B100200390049005AA04A903A8FFF741
:1052C00055F9DDE9032102208DE8070000230AA13A
:1052D0000B48059AFFF761FE606010B106B001202F
:1052E00010BD502080F31188BFF34F8FBFF36F8F35
:1052F000FEE7000050000020546D722053766300DA
:10530000994300082DE9FF411E46134602000A9DFD
:105310004FF0000016D0144C2768002F0FD0CDE9B5
:1053200000130292062917DAFFF762FE02284FF0F7
:1053300000030FD0002269462068FFF71BFC04B071
:10534000BDE8F081502080F31188BFF34F8FBFF389
:105350006F8FFEE72A46EEE700233246694638465D
:10536000FFF7B8FCEBE700005000002024560008CF
:10537000000000000000000000000000000000002D
:105380000002000018000000000000000000000003
:1053900000000000000000000102030406070809E5
:1053A00000000000010203045B444941475D2049BD
:1053B0004E414B2073746179732031207768656E9C
:1053C0002043414E5F52582070696E20646F6573B0
:1053D000206E6F74207365652072656365737369F1
:1053E0007665206C6576656C202848494748290D0C
:1053F0000A0000005B444941475D2020202D2043E6
:105400006865636B204146206D617070696E673A14
:10541000205044303D4146392843414E315F525877
:10542000292C205044313D4146392843414E315FBB
:105430005458290D0A0000005B444941475D202073
:10544000202843414E5F52582069646C6520736880
:105450006F756C6420626520484947483D312C20B7
:105460004C4F573D30206D65616E73206E6F207418
:1054700072616E73636569766572206F7220627502
:105480007320737475636B20646F6D696E616E74E5
:10549000290D0A005B444941475D202A2A2A204CF5
:1054A0004F4F504241434B205354415254204641A8
:1054B000494C4544202D2043414E20636F6E747249
:1054C0006F6C6C65722063616E6E6F74206C6561C9
:1054D000766520696E6974206D6F6465202A2A2ABA
:1054E0000D0A00005B444941475D203D3D3D204C95
:1054F0004F4F504241434B20544553542028696E2E
:105500007465726E616C2C206E6F207472616E73A4
:10551000636569766572206E656564656429203D02
:105520003D3D0D0A000000005B444941475D2054A9
:10553000686973206D65616E732043414E20636F0F
:105540006E74726F6C6C657220697473656C662022
:1055500069732062726F6B656E206F72206D697364
:10556000636F6E666967757265640D0A00000000FE
:105570005B43414E20444941475D20436865636B6E
:105580003A203129205472616E73636569766572C1
:1055900020706F7765722032292043414E482F4397
:1055A000414E4C20776972696E672033292054651B
:1055B000726D696E6174696F6E2072657369737460
:1055C0006F727320342920426175647261746520A2
:1055D0006D617463680D0A005B444941475D204278
:1055E00054523D30782530386C583A2050726573EB
:1055F00063616C65723D256C75205453313D256C9B
:1056000075205453323D256C7520534A573D256C07
:105610007520746F74616C5F54513D256C750D0A73
:105620000000000064656661756C745461736B0002
:10563000505600080000002098000000C036000806
:10564000E85600089800002070520000D03600088C
:105650000000000001000000100000000000000039
:105660000024F40000000000000000000000000022
:10567000000000000000000000000000000000002A
:10568000000000000000000000000000000000001A
:10569000000000000000000000000000000000000A
:1056A00000000000000000000000000000000000FA
:1056B00000000000000000000000000000000000EA
:1056C00000000000000000000000000000000000DA
:1056D000000000000000000000000000AAAAAAAA22
:0856E0000000000000000000C2
:040000050800018965
:00000001FF
